{
  "_format": "hh-sol-artifact-1",
  "contractName": "EventfulToken",
  "sourceName": "contracts/eventful.sol",
  "abi": [
    {
      "anonymous": false,
      "inputs": [
        {
          "indexed": true,
          "internalType": "address",
          "name": "sender",
          "type": "address"
        },
        {
          "indexed": true,
          "internalType": "address",
          "name": "recipient",
          "type": "address"
        },
        {
          "indexed": false,
          "internalType": "uint256",
          "name": "amount",
          "type": "uint256"
        }
      ],
      "name": "Transfer",
      "type": "event"
    },
    {
      "inputs": [
        {
          "internalType": "address",
          "name": "from",
          "type": "address"
        },
        {
          "internalType": "address",
          "name": "to",
          "type": "address"
        },
        {
          "internalType": "uint256",
          "name": "amount",
          "type": "uint256"
        }
      ],
      "name": "transfer",
      "outputs": [],
      "stateMutability": "nonpayable",
      "type": "function"
    }
  ],
  "bytecode": "0x608060405234801561001057600080fd5b50610202806100206000396000f3fe608060405234801561001057600080fd5b506004361061002b5760003560e01c8063beabacc814610030575b600080fd5b61004a6004803603810190610045919061014f565b61004c565b005b8173ffffffffffffffffffffffffffffffffffffffff168373ffffffffffffffffffffffffffffffffffffffff167fddf252ad1be2c89b69c2b068fc378daa952ba7f163c4a11628f55a4df523b3ef836040516100a991906101b1565b60405180910390a3505050565b600080fd5b600073ffffffffffffffffffffffffffffffffffffffff82169050919050565b60006100e6826100bb565b9050919050565b6100f6816100db565b811461010157600080fd5b50565b600081359050610113816100ed565b92915050565b6000819050919050565b61012c81610119565b811461013757600080fd5b50565b60008135905061014981610123565b92915050565b600080600060608486031215610168576101676100b6565b5b600061017686828701610104565b935050602061018786828701610104565b92505060406101988682870161013a565b9150509250925092565b6101ab81610119565b82525050565b60006020820190506101c660008301846101a2565b9291505056fea264697066735822122049e42372fd4b5d97720879ed43e54936f3b1a6a24bcb9d8450cab95869124f9e64736f6c63430008110033",
  "linkReferences": {},
  "deployedLinkReferences": {}
}